:10000000C5C060C2DEC0DDC0DCC0DBC0DAC0D9C0A4
:10001000D8C0DBC7D6C01AC6D4C0D3C0D2C0D1C0E6
:10002000D0C0CFC0CEC02EC734C74AC7A6C7A5C749
:100030005CC7A3C7A2C7A1C7A0C79FC79EC79DC7CC
:100040009CC79BC763C766C769C76CC76FC774C7C0
:1000500078C787C77DC785C77BC77AC779C785C774
:100060008CC78BC78AC789C788C787C786C785C714
:1000700084C783C782C781C780C77FC77EC780C741
:100080000403090412036F00620064006500760037
:100090002E006100740014034100560052002D0030
:1000A00044006F007000650072001203610076006A
:1000B000720064006F007000650072000853544BBA
:1000C0003530305F32000600FF0901A1011500261E
:1000D000FF0075088501950E0900B20201850295A1
:1000E0001E0900B202018503953E0900B202018596
:1000F00004957E0900B202018505953E0900B20211
:1001000001C01201010100000008C016DF05000156
:1001100001020001090222000101008064090400BB
:10012000000103000000092101010001223C000739
:1001300005810308000A1201100102000008C01620
:10014000E1050001010203010902430002010080F0
:1001500064090400000102020100052400100104EA
:10016000240202052406000105240103010705837A
:100170000308006409040100020A000000070501E9
:1001800002080000070581020800000011241FBEBC
:10019000CFE5D4E0DEBFCDBF10E0A0E6B0E0ECE3F9
:1001A000F4E102C005900D92AC38B107D9F713E025
:1001B000ACE8B0E001C01D92AB3EB107E1F791D7CA
:1001C0003BC91ECF85B7836085BF8BB780648BBF6B
:1001D00083EC8093E502809310038AE58093E40228
:1001E00080930F0308951F93CF93DF93DC01162FA5
:1001F000EA01888184FF05C0898198E8892789837D
:1002000002C08AE58883AE014E5F5F4F212FFA015D
:100210008D91819321501216DCF3CA01612F4ED1CA
:100220001C5F1883DF91CF911F9108954FE053E039
:10023000DADF089544EE52E0D6DF08951F93CF939E
:10024000DF936091F502635067FDB9C08091F202BF
:10025000CCE0D0E0C81BD109C750DD4F8091F1023E
:10026000803118F4CE01D2D7A8C08D3209F095C0E4
:10027000683009F0A2C083EC8093D9028AE58093AC
:10028000600010928C008881807621F0CE01F8D633
:10029000282F70C09A811092E2028981882321F46C
:1002A0001092E30222E05FC0853019F49093F602C9
:1002B00059C0863009F040C08B81813051F18230C5
:1002C00041F1833021F58A81882341F480E890E070
:1002D0009093F4028093F30224E02AC0813019F451
:1002E00084E890E00EC0823041F486E990E090937B
:1002F000F4028093F30224E11BC08330C1F48AEA44
:1003000090E09093F4028093F30222E111C08132D5
:1003100021F4CE0192D6282F0BC0823241F486EC14
:1003200090E09093F4028093F3022CE301C020E06C
:1003300080E480938C001EC0883021F421E088EF97
:1003400092E013C0893019F49093F8020BC08A3000
:1003500011F421E008C08B3029F483EC8093E5028E
:100360008093100320E082EE92E09093F402809359
:10037000F30209C02F3F39F4888187FD2E8180E880
:1003800080938C0006C08F81882319F48E81821798
:1003900008F0822F8093610010C080918C0087FF4D
:1003A0000CC0CE0140D78F3F21F48EE180936000D6
:1003B00004C0882311F0109261001092F502809120
:1003C000600084FF58C0809161008F3F09F453C0E2
:1003D000182F893008F018E0811B8093610080910C
:1003E000D90298E889278093D902112391F180914D
:1003F0008C0087FF08C08AED92E0612F79D7182F13
:10040000893098F526C02091F3023091F40286FFDE
:100410000DC0AAEDB2E080E090E0F901E80FF91F0D
:10042000E491ED9301961817C1F708C0912FD901F7
:10043000EAEDF2E08D9181939150E1F71150812F17
:1004400090E01F5F0196820F931F9093F4028093B8
:10045000F3028AED92E0612F31D0612F6C5F6C3036
:1004600041F08FEF8093610004C08FEF80936100B3
:100470006EE16093600094E180B38C7031F4915030
:10048000D9F71092F6021092F002DF91CF911F91EE
:100490000895A82FB92F80E090E041E050EA6095E0
:1004A0006F5F58F42D9138EF82279795879510F05C
:1004B000842795273F5FC8F3F3CF0895EADF8D9334
:1004C0009D930895CF93CFB7CF93C395839BE9F7BF
:1004D000839B09C0839B07C0839B05C0839B03C08C
:1004E000839B01C0A6C0DF93C091F202DD27C750F5
:1004F000DD4F839B02C0DF91EBCF2F930F931F93B0
:1005000000B32FEF03FB20F94F933F9310B34FEF4E
:10051000012703FB21F93BE031C04E7F012F10B3CF
:10052000216028C0102F4D7F2260000000B329C039
:100530004B7F2460012F000010B32BC010B3477F06
:1005400028602AC04F7E00B320612CC04F7D10B3BD
:1005500020622FC04F7B00B3206432C0422700B31B
:1005600049934FEF0000102713FB20F910B31C70C4
:10057000C9F1297F91F2012703FB21F900B3237F01
:1005800089F2315058F1102713FB22F910B3277E5E
:1005900079F2012703FB23F92F7C81F200B31027A6
:1005A00013FB24F92F7971F200C010B3012703FB6C
:1005B00025F92F7359F200C000B3102713FB26F959
:1005C000223040F200C010B3012703FB27F924308A
:1005D00028F64F77206810B30000F9CF10E41ABF57
:1005E00000271CC03B503195C31BD04010E41ABFFC
:1005F0000881033C11F10B3401F12091F0021981C3
:10060000110F1213EDCF4A81441F093659F10D32F3
:1006100011F0013E29F74F7009F0042F0093F70203
:100620003F914F911F910F912F91DF91CAB7C6FD56
:100630004CCFCF91CFBFCF9118952091F7022223B5
:1006400079F31091F5021123C1F53430C2F13093E2
:10065000F5022093F1021091F2023BE0311B30933E
:10066000F2022DC00091F50201303CF50AE54F7011
:1006700049F43091600034FD24C000936000C9ED5E
:10068000D2E023C0433049F03091E40234FD19C078
:100690000093E402C5EED2E018C030910F0334FDA0
:1006A00010C000930F03C0E1D3E00FC02795A8F45A
:1006B0005150A9F4220F0000F9CF4AE503C042EDE2
:1006C00001C0432FC4E1D0E032E011B31C60939A23
:1006D00011BB02B320E41CE05F93012756E002BB8C
:1006E000279520F4515021F4220FF9CF012756E02D
:1006F00000003B5A02BBD0F2279528F4515029F450
:10070000220F0000F9CF012756E0279502BB20F405
:10071000515021F4220FF9CF012756E029913323BC
:1007200002BB21F6037F1091F602110FC651D04093
:1007300002BB11F01093F00210E41ABF086011B36D
:10074000137F402F437F5F9100C000C002BB11BBED
:1007500042BB66CFDF92EF92FF920F931F93CF932E
:10076000DF93EC01E62ED0908D00F89405B30F7E58
:1007700010E018C0188188E0F82E17FD006105BB55
:1007800078948D2D16D4F894AA9A110F0F7E9B9908
:10079000116078948D2D0DD4F894AA98FA9469F785
:1007A0002196EA94EE2031F77894812FDF91CF9152
:1007B0001F910F91FF90EF90DF900895AF92BF923D
:1007C000CF92DF92EF92FF920F931F93CF93DF931D
:1007D000EC015B0188811A81811708F4182FCE0182
:1007E0000396612FB7DF75010894E11CF11C00E04E
:1007F000C12EDD2412C02C0D3D1D2D5F3F4FCE01BB
:10080000820F931F61E0A6DF982F8981081718F4E3
:10081000F70191937F01A8950F5F202F30E0888129
:1008200090E08C199D09281739072CF30BC0109202
:100830008E008EE890E061E08DDFF70181937F010B
:10084000A8950F5F8981081790F3F5011082F701D1
:100850001082298130E02E5F3F4FC901DF91CF9197
:100860001F910F91FF90EF90DF90CF90BF90AF90CE
:1008700008951F93CF93DF93EC01019668816ADF9F
:10088000182F2881243040F4822F90E0019664E0F4
:10089000621B8C0F9D1F5EDF812FDF91CF911F9117
:1008A000089564E057DF80E00895AF92BF92CF9241
:1008B000DF92EF92FF920F931F93CF93DF93EC01A0
:1008C0007B01C42E10929100442389F48091E803A7
:1008D00087FF0DC08DE480938E0010928F00809171
:1008E000E703809390008EE890E064E033DF988126
:1008F000898157010894A11CB11CF7011082DA808C
:10090000EC0100E010E01FC0A8958091E603809301
:100910008F008091E50380939000CC2041F400FF8C
:1009200003C0F8E0DF2A03C087EFD82201C0B4D1AA
:10093000D0928E008EE890E064E00CDFF5018193A8
:100940005F010F5F1F4F0C171D07F0F2EC0EFD1E2D
:10095000F70111829E012E5F3F4FC901DF91CF91B8
:100960001F910F91FF90EF90DF90CF90BF90AF90CD
:10097000089595B39B7E95BBAD9A0FD385B58F7EB9
:1009800085BDC498BC9AAD98C59808950F931F93E0
:100990008C01FC018081EDDFF8018181FED21F9185
:1009A0000F910895DF92EF92FF920F931F93CF93D1
:1009B000DF93EC0180917A004981849902C08DE037
:1009C0001CC0882311F0813019F410928D0017C0DB
:1009D000823011F481E011C0833011F482E00DC047
:1009E00090E001969C01359527953595279534E043
:1009F000959587953A95E1F7820F80938D00C59A7A
:100A000085B38B7E85BBAD9ABC98C49A85B5806151
:100A100085BD842FC2D280918D00CBD2AD988091BC
:100A20008D00C7D2AD9A8A81B8D227E0E22EF12C90
:100A3000EC0EFD1E10E294E0D92E1DC0A895C70152
:100A40006E8188DE082F2E81243040F4822F90E0C2
:100A500007966D2D621B8C0F9D1F7CDE8D81081704
:100A600011F480E00DC0AA9A80918D00A2D2AA98BC
:100A700080918D009ED2115008F780E07ADF80ECE3
:100A8000DF91CF911F910F91FF90EF90DF9008952C
:100A90001F93CAD210EF06C08091E903882311F496
:100AA00081E80BC010938E0010928F008EE890E0CA
:100AB00064E050DE80FDF0CF80E01F910895FF924A
:100AC0000F931F938C01FC01F080029664E042DEDC
:100AD000F8018181882341F0F9E0FF1510F06AE008
:100AE000F62E8F2DD5DF03C08F2D57D280E01F91BA
:100AF0000F91FF9008956F927F928F929F92AF9285
:100B0000BF92CF92DF92EF92FF920F931F93CF93FA
:100B1000DF93EC01662EF88019818A8180FD04C084
:100B2000E4E07E2E08E003C070E2772E00E4662049
:100B300099F48091E80387FF0FC08DE480938E00C5
:100B400010928F008091E7038093900010929100A3
:100B50008EE890E064E0FEDDC12EDF2C46010894B3
:100B6000810891085E01EE24FF245CC0A895809165
:100B7000E60380938F008091E50380939000F50158
:100B80008185809391001C81662021F4177FE0FE0F
:100B900002C0186081D010938E008EE890E064E06F
:100BA000D9DD8A8180FF0CC0E814F90490F187FF39
:100BB00030C08D8180938E008EE890E064E0CADDC5
:100BC0009A81872D8923F1F0F50111858F811817FE
:100BD000F1F088851817D9F08E81877FE0FC886056
:100BE00080938E008B8120D206C08091E9038823F8
:100BF00011F480E80FC08EE890E064E0ABDD81176F
:100C0000A1F707C0902319F08B8142DF03C08B81CD
:100C1000C4D180E00894A11CB11C882341F408943D
:100C2000E11CF11CEC14FD0408F4A0CF80E0DF917E
:100C3000CF911F910F91FF90EF90DF90CF90BF90D9
:100C4000AF909F908F907F906F9008951F920F921A
:100C50000FB60F9211242F938F939F93EF93FF93CF
:100C60002CB1E0911C039E2F9F5F983C08F090E010
:100C700080911B03981731F0F0E0E55EFC4F228372
:100C800090931C03FF91EF919F918F912F910F9063
:100C90000FBE0F901F9018958091E5039091E60389
:100CA000A091E703B091E8030196A11DB11D8093C7
:100CB000E5039093E603A093E703B093E803089558
:100CC0002BE12093B001209193002093B1019093E8
:100CD000B2018093B3012EE02093B4011092CA02B6
:100CE0001092C90206969093CC028093CB029C018D
:100CF00021503040E0EBF1E090E004C08191982772
:100D00002150304021153105C9F790830895282FCF
:100D10008091EA03882321F41092AC011092AB0178
:100D20008091AB019091AC01009761F42B3109F0F7
:100D300060C02093920081E090E09093AC0180939A
:100D4000AB0157C031E08931930708F04EC0FC0178
:100D5000EE56FF4F2083FC013196F093AC01E093F7
:100D6000AB01E430F105A9F4809195008093AD01C9
:100D7000809194008093AE018091AD019091AE017D
:100D800006969093AE018093AD018A51914088F10F
:100D90002CC0E530F10519F42E3039F52AC0E530C4
:100DA000F10538F18091AD019091AE01E817F90796
:100DB00001F590E0A2E9B0E003C08D91982731974A
:100DC0003097D9F71092AC011092AB01992321F41E
:100DD00081E08093AF010DC080EB8093B5018093DB
:100DE000B60182E090E06CDF04C01092AC0110927A
:100DF000AB0188EC8093EA0308952091CB023091F7
:100E0000CC028091C9029091CA02281B390BC901FA
:100E100008952091CB023091CC022115310519F4AF
:100E2000EFEFFFEF19C08091C9029091CA02FC0157
:100E3000E055FE4FE08101969093CA028093C9026B
:100E40008217930740F01092CC021092CB021092BE
:100E5000CA021092C902F0E0CF010895CF93DF9348
:100E6000C2E0D0E0809197008093B5011092B60166
:100E700090E0FC013197ED32F10508F07EC0ED5EA7
:100E8000FF4F099487EB91E06CEB70E0CED2CBE0A2
:100E900077C0E091980020919900E63939F485B542
:100EA000922F9770887F982B95BD03C0E73909F47E
:100EB00023BDF0E0EF71F070EE59FF4F208360C06A
:100EC000E0919800E63919F4E5B5E7700AC0E73912
:100ED00011F4E3B506C0F0E0EF71F070EE59FF4F8A
:100EE000E081E093B701C3E04BC08091980080930C
:100EF000E803809199008093E70380919A008093A2
:100F0000E60380919B008093E5033AC088E990E076
:100F100049DD34C088E990E039DD32C088E990E0ED
:100F2000CEDD2CC088E990E060E009C088E990E05F
:100F300066EB71E040E00AC088E990E061E0DBDD4B
:100F40001DC088E990E066EB71E041E0AEDC12C0C4
:100F500088E990E08EDC8093B7011092B801C4E07C
:100F60000FC088E990E09DDC09C088E990E066EB5D
:100F700071E024DCEC01219603C080EC8093B60183
:100F8000CE019EDEDF91CF9108958091AF0188233D
:100F900019F01092AF0162DF0895982F96959695FB
:100FA0008F5F891B8093E9038091E9038823E1F730
:100FB0000895982FF89481E080BF82B7980F7894B5
:100FC00082B7891B87FDFCCF089578941F920F92FA
:100FD0000FB60F9211248F93F8948091E903882320
:100FE00029F08091E90381508093E9037894F89483
:100FF00080918200815080938200882371F489E47B
:101000008093820078948091EA03882339F080915C
:10101000EA0381508093EA0301C078948F910F9086
:101020000FBE0F901F901895982F9F5F86958695FD
:10103000981B9093E903089508952091D802FC012C
:101040008381222379F0813019F422E031E00EC04F
:10105000823021F424E131E082E20DC026E231E069
:1010600089E009C0813021F426E331E082E103C048
:1010700028E431E083E43093F4022093F3020895EE
:10108000FC01808180768032C1F48091D802918108
:10109000882369F0913011F0993009F582818093AD
:1010A000D602853011F483E016C081E014C090525E
:1010B0009230A8F41092D70210C0803481F481815C
:1010C000813031F482815D9BFECF8CB980E0089540
:1010D000823029F484E08093D7028FEF089580E076
:1010E00008950F931F93CF93DF932EE088E190E054
:1010F0000FB6F894A89581BD0FBE21BD86E289B9CF
:1011000088E98AB9A49AAC9AA498AC9883B38295DA
:101110008F70809581708093D80218BA88E387BB5E
:1011200088E085BB84E384BB83E982BB81E881BB23
:101130008B9A20E048EB5BE004C0A895CA010197B8
:10114000F1F72150D1F78B9883E083BF81E089BF0D
:1011500082E88FBD29E02EBD81E090E09BBD8ABD75
:1011600025BD82E083BD87B1816C87B983EE86B9E6
:10117000349BFECF349A60DF25D8789401E0349B0D
:10118000FECF84B195B1349A2091D5028536910570
:1011900060F02223B9F488B325B392B3926888BB78
:1011A00025BB92BB0093D5020DC0222359F088B312
:1011B00095B322B38F7E9B7C2D7788BB95BB22BBDA
:1011C0001092D502A8953AD8E0DE8091D802882303
:1011D000B1F68091E40284FFD2CFCDECD2E010E0F2
:1011E00004C089931F5F183051F013DE97FFF9CFC9
:1011F000112329F480918300882309F4C0CF109330
:1012000083008DEC92E0612F15D8B9CF1F93CF9357
:10121000DF93EC01162F89917ADD1150E1F7DF9110
:10122000CF911F9108950F931F93CF93DF93FC01EC
:10123000162F9091D702992359F48BE48093E502FD
:10124000A4E8B0E087E001900D928150E1F724C05E
:101250009330F1F420E0683009F021E08091D6026B
:10126000853031F4818181958093D6023296125077
:101270008091D602882391F190815D9BFECF9CB92D
:101280008F5F115019F48093D6022CC03196F2CFA3
:10129000892F8150823010F021E024C000E06830B6
:1012A00009F001E0913011F0EF0109C081818093D4
:1012B000D602EF012296125082E08093D7028091ED
:1012C000D602882371F0888122DD8091D602815078
:1012D0008093D602115029F02196F1CF1092D602B8
:1012E00001C0202F822FDF91CF911F910F91089580
:1012F000FF920F931F93CF93DF938C01F62E909163
:10130000D702992351F4D801E4E8F0E087E0019096
:101310000D928150E1F727E081C09430E9F420E09C
:1013200011C0E92FF0E0E55EFC4F3281892F8F5F1D
:1013300080931B03883C10F010921B03F80131933B
:101340008F012F5F2F1508F069C090911B038091CA
:101350001C03981731F762C09330B1F58091D60223
:10136000853019F0D801262F12C0F8018193909191
:101370001C0380911B03292F281B981708F428535E
:10138000DF012D932F2D225081E08093D602809192
:10139000D602882309F441C090911B0380911C035D
:1013A000981789F1E92FF0E0E55EFC4F3281892F33
:1013B0008F5F80931B03883C10F010921B033C93BB
:1013C000215059F11196E8CF892F8150823018F5BC
:1013D000913019F0E801162F0FC08091D602E80174
:1013E00089930BDD91118FEFF801818321961F2DD9
:1013F000125082E08093D7028091D602882369F050
:1014000008DD97FF03C01092D60207C088831150F1
:1014100021F02196F5CF20E001C02F2D822FDF9102
:10142000CF911F910F91FF900895FB01DC01059072
:0C1430000D920020E1F70895F894FFCF22
:10143C005AFF000000000000000000000000000047
:10144C00000001020400320001800200AA0000002A
:0C145C00000001018025000000000800D5
:00000001FF
